:100000000C9463000C948B000C948B000C948C0B60
:100010000C948C0B0C948C0B0C948B000C948B001C
:100020000C948B000C948B000C948B000C948B0024
:100030000C948B000C948B000C948B000C948B0014
:100040000C94EA0A0C948B000C945A0B0C94340B0D
:100050000C948B000C948B000C948B000C948B00F4
:100060000C948B000C948B000000000024002700EF
:100070002A0000000008000201000003040700003D
:1000800000000000000000000000230026002900FE
:1000900000000000250028002B00040404040404D0
:1000A0000404020202020202030303030303010227
:1000B00004081020408001020408102001020408F6
:1000C0001020040C6E1011241FBECFEFD8E0DEBF4D
:1000D000CDBF14E0A0E0B1E0E0E6F6E202C005909A
:1000E0000D92A03CB107D9F726E0A0ECB4E001C026
:1000F0001D92A431B207E1F710E0C2E6D0E004C0DF
:100100002197FE010E941D13C136D107C9F70E9435
:10011000F60C0C9423130C940000CF92DF92EF9214
:10012000FF92CF93DF93B0910806A0E08111AB2F2F
:100130008091090690E0880F991FAC014A575F4FE4
:10014000C0900E06D0900F06E0901006F0901106B9
:1001500030E020E0FA01C591D491E881B90190E046
:1001600080E0EB23EA130AC02F5F3F4F6C157D053B
:100170008E059F0578F36FEF7FEFCB01DF91CF9175
:10018000FF90EF90DF90CF900895833081F028F4B6
:10019000813099F08230A9F008958730A9F0883035
:1001A000C9F08430B1F4809180008F7D03C08091CC
:1001B00080008F7780938000089584B58F7784BD09
:1001C000089584B58F7DFBCF8091B0008F778093A9
:1001D000B00008958091B0008F7DF9CFCF93DF9369
:1001E000282F30E0F901EE58FF4F8491F901E255D4
:1001F000FF4FD491F901E656FF4FC491CC23A1F0F3
:1002000081110E94C500EC2FF0E0EE0FFF1FEA57AE
:10021000FF4FA591B491EC91ED2381E090E009F4BA
:1002200080E0DF91CF91089580E090E0FACF1F93B6
:10023000CF93DF93282F30E0F901EE58FF4F8491E0
:10024000F901E255FF4FD491F901E656FF4FC491F1
:10025000CC23A9F0162F81110E94C500EC2FF0E0ED
:10026000EE0FFF1FE057FF4FA591B4918FB7F894A1
:10027000EC91111108C0D095DE23DC938FBFDF9184
:10028000CF911F910895DE2BF8CFCF93DF9390E0AD
:10029000FC01E255FF4F249186569F4FFC0184914B
:1002A0008823C9F090E0880F991FFC01E859FF4F9F
:1002B000A591B491FC01E057FF4FC591D491611114
:1002C0000DC09FB7F8948C91209582238C938881E0
:1002D000282328839FBFDF91CF910895623051F486
:1002E0009FB7F8943C91822F809583238C93E8816B
:1002F0002E2BEFCF8FB7F894EC912E2B2C938FBF32
:10030000EACF3FB7F8948091250590912605A091FA
:100310002705B091280526B5A89B05C02F3F19F0E9
:100320000196A11DB11D3FBFBA2FA92F982F882775
:10033000BC01CD01620F711D811D911D42E0660F50
:10034000771F881F991F4A95D1F708958F929F9222
:10035000AF92BF92CF92DF92EF92FF924B015C017E
:100360000E9481016B017C010E9481016C197D0951
:100370008E099F09683E734081059105A8F321E02D
:10038000821A9108A108B10888EEC80E83E0D81E31
:10039000E11CF11C81149104A104B10429F7FF9020
:1003A000EF90DF90CF90BF90AF909F908F90089587
:1003B000CF92DF92EF92FF920F931F93CF93DF9331
:1003C000CDB7DEB7C054D1400FB6F894DEBF0FBE34
:1003D000CDBF2FB7F8948091290590912A05A0915F
:1003E0002B05B0912C052FBF40910A0650910B06AA
:1003F00060910C0670910D068C019D01041B150B7C
:10040000260B370BB901A801403D57406105710526
:1004100090F480911206C05CDE4F0FB6F894DEBFF8
:100420000FBECDBFDF91CF911F910F91FF90EF9045
:10043000DF90CF90089580930A0690930B06A093C7
:100440000C06B0930D061092050610920406109249
:100450000306109202061092010662E080910606E1
:100460000E94450161E070E080E090E00E94A601FA
:1004700061E0809106060E94450160E080910606D9
:100480000E941701809107068551823020F58BE28A
:1004900091E10197F1F762E0809106060E94450123
:1004A0008091130690E08230910538F0880F991FF3
:1004B000880F991F05970197F1F7F89480E00E9443
:1004C0008D006F3F7F4F8F4F9F4F61F41092120648
:1004D000789480E0A0CF64E170E080E090E00E943A
:1004E000A601D9CF81E00E948D006F3F7F4F8F4FD3
:1004F0009F4F61F38E010F5F1F4F6E018FEBC81A84
:100500008EEFD80A780180E00E948D00F7016083A9
:1005100071838283938381E00E948D00F70164835D
:10052000758386839783F8E0EF0EF11CEC14FD04CD
:1005300051F7789430E020E0F801C080D180E2806B
:10054000F3804481558166817781FFEFCF16DF0606
:10055000EF06FF0631F04F3F8FEF58076807780727
:1005600019F410921206B5CFF90183E0F595E795DD
:100570008A95E1F7EF5FF94F8081880FC416D506A1
:10058000E606F70610F180832F5F3F4F085F1F4F8D
:100590002832310589F640910506209101068091A7
:1005A0000206280F3327331F80910306280F311DC1
:1005B00080910406820F932F911D992748171906E1
:1005C00081F681E08093120626CF8160DCCFDC01CA
:1005D000ED91FC910190F081E02D0994AF92BF92D2
:1005E000CF92DF92EF92FF920F931F93CF93DF93FF
:1005F0006C017B018B01040F151FEB015E01AE182E
:10060000BF08C017D10759F06991D601ED91FC914F
:100610000190F081E02DC6010995892B79F7C5017C
:10062000DF91CF911F910F91FF90EF90DF90CF90CE
:10063000BF90AF900895FC01538D448D252F30E07D
:10064000842F90E0821B930B541710F0CF960895DF
:1006500001970895FC01918D828D981761F0A28D0C
:10066000AE0FBF2FB11D5D968C91928D9F5F9F73D2
:10067000928F90E008958FEF9FEF0895FC01918D88
:10068000828D981731F0828DE80FF11D858D90E0F5
:1006900008958FEF9FEF0895FC01918D228D892F92
:1006A00090E0805C9F4F821B91098F73992708957A
:1006B0008DE295E00E944C0321E0892B09F420E0B3
:1006C000822F089580E090E0892B29F00E94580342
:1006D00081110C9400000895FC01A48DA80FB92F7E
:1006E000B11DA35ABF4F2C91848D90E001968F735A
:1006F0009927848FA689B7892C93A089B1898C9179
:10070000837080648C93938D848D981306C00288C7
:10071000F389E02D80818F7D80830895EF92FF9291
:100720000F931F93CF93DF93EC0181E0888F9B8D14
:100730008C8D98131AC0E889F989808185FF15C0CE
:100740009FB7F894EE89FF896083E889F9898081F1
:100750008370806480839FBF81E090E0DF91CF91C0
:100760001F910F91FF90EF900895F62E0B8D10E0E2
:100770000F5F1F4F0F731127E02E8C8D8E110CC051
:100780000FB607FCFACFE889F989808185FFF5CF9C
:10079000CE010E946C03F1CFEB8DEC0FFD2FF11D0C
:1007A000E35AFF4FF0829FB7F8940B8FEA89FB89D9
:1007B00080818062CFCFCF93DF93EC01888D882337
:1007C000B9F0AA89BB89E889F9898C9185FD03C0B4
:1007D000808186FD0DC00FB607FCF7CF8C9185FF99
:1007E000F2CF808185FFEDCFCE010E946C03E9CF6F
:1007F000DF91CF91089520910805309109052817C0
:10080000390771F49091060580910705981741F01A
:10081000E0910605F0E0EA53FB4F808190E00895F7
:100820008FEF9FEF08950895EF92FF920F931F931C
:10083000CF93DF93DC015C96ED90FC905D97E11423
:10084000F10479F481E090E013969C938E931297D3
:1008500090E080E0DF91CF911F910F91FF90EF909A
:1008600008955196ED91FC91529750968C91509726
:10087000982F90950FB75E962C915E97122F12705D
:1008800021FD6095F8942081112319F1282B2083F4
:10089000E7012197F1F728E0462F50E0308160FF13
:1008A0001AC0382B3083E7012197F1F7BA0175950B
:1008B0006795215089F7112381F0808189238083F6
:1008C0000FBF5C968D919C910197F1F781E090E0CC
:1008D000C1CF2923DCCF3923E5CF9081892BEFCFFE
:1008E00020910805309109052817390761F4809196
:1008F00007052091060590E0805C9F4F821B9109BF
:100900008F739927089590E080E00895209108055D
:100910003091090528173907B9F49091060580919F
:100920000705981789F0E0910605F0E0EA53FB4FC0
:1009300080812091060530E02F5F3F4F2F733327D2
:100940002093060590E008958FEF9FEF0895089596
:1009500090E080E0089560E085E00E94170160E08B
:1009600084E00E94170110920A05089561E085E075
:100970000E94170160E084E00E94170181E08093EB
:100980000A05089560E087E00E94170160E086E0B4
:100990000E94170110920B05089561E087E00E9404
:1009A000170160E086E00E94170181E080930B054B
:1009B000089580910C0590910D058497C4F40E94D0
:1009C000CD04809116058823A9F020E030E04CE0AA
:1009D00052E4609112057091130580911405909175
:1009E00015050E949F1287FD05C00C94B6040E9455
:1009F000C204E7CF0C94AB048F929F92AF92BF9248
:100A0000CF92DF92EF92FF92CF930E94D80188237A
:100A100041F0809107068C3009F463C048F48B30B4
:100A200001F1C12CD12C90ECE92E9FE7F92E43C0A7
:100A300085518230B0F7C09103066C2F70E0762F9D
:100A4000662766277F7780910406682B90E080E018
:100A50000E94ED112DEC3CEC4CEC5DE30E94A412E5
:100A60005CC06091030670E090E080E00E94ED11B0
:100A70006B017C01C0910406C7FF0AC0AC019B0159
:100A800060E070E080E89FEB0E94DA106B017C016F
:100A9000CF706C2F70E090E080E00E94EF112DECA1
:100AA0003CEC4CEC5DE30E94A412A70196010E946D
:100AB000DB106B017C010E94D801882309F465C01A
:100AC000809107068B3030F08D3080F18551823077
:100AD00008F4A8C0812C912C80ECA82E8FE7B82EAA
:100AE00043C0C09103066C2F70E090E080E00E944C
:100AF000ED116B017C01609104066F7070E090E075
:100B000080E00E94EF112DEC3CEC4CEC5DE30E9488
:100B1000A412A70196010E94DB106B017C01C7FFA4
:100B2000CACFF7FAF094F7F8F094C5CF60910206B7
:100B300070E090E080E00E94EF112DEC3CEC4CEC7A
:100B40005DE30E94A4124B015C016091010670E01C
:100B500090E080E00E94EF119B01AC01C501B4015F
:100B60000E94DB104B015C01A7019601C701B60191
:100B70000E941113811109C0A5019401C501B4019E
:100B80000E941113882309F45FC01092160583E4B4
:100B900080937C0080917A00806480937A008091B9
:100BA0007A0086FDFCCFE0907800F0907900F0921A
:100BB000C504E092C404B7010F2C000C880B990BFC
:100BC0000E94EF112AE038E240EA5BE30E94A4129F
:100BD0006093C0047093C1048093C2049093C304D3
:100BE00024E630E0D7010E9416132FEF33E040E0F7
:100BF00050E00E948A102536310514F024E630E0DA
:100C000037FF02C030E020E030930D0520930C0543
:100C1000CF91FF90EF90DF90CF90BF90AF909F90DB
:100C20008F900895609101067091020676276727DC
:100C3000762790E080E00E94ED112DEC3CEC4CEC2E
:100C40005DE30E94A4128ECF81E080931605C092CE
:100C50001205D0921305E0921405F09215058092CA
:100C60000E0590920F05A0921005B09211058FCF3E
:100C7000CF93DF93EC0160E08E810E94170161E069
:100C80008E810E94170160E08E810E9417018BE81F
:100C900091E00197F1F7DF91CF910895CF92DF9224
:100CA000EF92FF920F931F93CF93DF936C017C0120
:100CB00087E0E80EF11CD0E0C0E0062F10E0B8019C
:100CC0000C2E02C0759567950A94E2F76170F701E2
:100CD00081917F010E9417012196C430D10579F7D7
:100CE000C601DF91CF911F910F91FF90EF90DF90A0
:100CF000CF900C943806CF92DF92EF92FF920F9331
:100D00001F93CF93DF93EC01F62E642F8C810E940A
:100D100017018D818F3F19F060E00E9417010F2DA0
:100D200010E08F8584FF25C06E0187E0C80ED11CBE
:100D3000F12CE12CB8010E2C02C0759567950A9430
:100D4000E2F76170F60181916F010E941701FFEFD8
:100D5000EF1AFF0A88E0E816F10461F7CE01DF918F
:100D6000CF911F910F91FF90EF90DF90CF900C9457
:100D70003806B80184E0759567958A95E1F7CE014C
:100D80000E944E066F2DCE01DF91CF911F910F91E2
:100D9000FF90EF90DF90CF900C944E0640E0682FCC
:100DA0008AEC95E00C947B0681E00E94CE068BE3F2
:100DB0009FE10197F1F70895CF93DF93823029F4F3
:100DC0009091D90598609093D9058093DD05109294
:100DD000DE0580E48093DF0580E18093E00580E517
:100DE0008093E10561E08091CE050E9445018091EC
:100DF000CF058F3F19F061E00E94450161E08091CD
:100E0000D0050E944501CAECD5E09E012A5C354020
:100E10008091D90584FD0BC084E090E021962817CD
:100E2000390744F461E08E810E944501EECF88E0ED
:100E300090E0F4CF8BE39DE00197F1F760E08091C3
:100E4000CE050E94170160E08091D0050E94170135
:100E50008091CF058F3F19F060E00E9417018091CB
:100E6000D90584FD34C063E08AEC95E00E944E060B
:100E7000CBE4D6E4CE010197F1F763E08AEC95E08C
:100E80000E944E062197F1F763E08AEC95E00E94FC
:100E90004E0683E592E00197F1F762E08AEC95E077
:100EA0000E944E068091D90580620E94CE0684E0A1
:100EB0008093DA058CE00E94CE060E94D40682E080
:100EC0008093DB0586E0DF91CF910C94CE068062A3
:100ED0000E94CE068BE496E40197F1F78091D90544
:100EE00080620E94CE0683E592E00197F1F780913F
:100EF000D90580620E94CE06D5CF9091DD05891775
:100F000010F08FEF890FE82FF0E0E653FA4F848955
:100F100080680C94CE0641E00E947B0681E090E060
:100F20000895FB0101900020E9F73197AF01461BBE
:100F3000570BDC01ED91FC910280F381E02D0994C7
:100F400064E371E08DE295E00C9491078F929F929B
:100F5000AF92BF92EF92FF920F931F93CF93DF93C5
:100F6000CDB7DEB7A1970FB6F894DEBF0FBECDBFE9
:100F70007C01FA01CB0119A2223008F42AE08E018B
:100F80000F5D1F4F822E912CB12CA12CBF01A5010A
:100F900094010E94A910F901CA016A300CF5605D44
:100FA000D8016E938D01232B242B252B79F790E00C
:100FB00080E0109721F0BD01C7010E949107A19622
:100FC0000FB6F894DEBF0FBECDBFDF91CF911F915A
:100FD0000F91FF90EF90BF90AF909F908F900895EA
:100FE000695CDECFCF92DF92EF92FF920F931F9357
:100FF000CF93DF936B01770FEE08FF08F7FE1BC05E
:10100000EC016DE20E94E7028C0144275527BA01EA
:101010004C195D096E097F092AE0CE010E94A607DE
:10102000800F911FDF91CF911F910F91FF90EF9053
:10103000DF90CF9008952AE0B701A601DF91CF910C
:101040001F910F91FF90EF90DF90CF900C94A60727
:10105000CF93DF93BC018DE295E00E949107EC01F4
:101060000E94A0078C0F9D1FDF91CF9108952F92B2
:101070003F924F925F926F927F928F929F92AF9228
:10108000BF92CF92DF92EF92FF921F93CF93DF93A5
:10109000EC016A017B01722EAB019601CB01B60116
:1010A0000E94111367E371E0811126C046015701C8
:1010B000E894B7F82FEF3FEF4FE75FE7C501B401C2
:1010C0000E94111381110CC02FEF3FEF4FE75FE734
:1010D000C501B4010E9447116BE371E0181664F07A
:1010E0002FEF3FEF4FE75FE4C701B6010E949F1269
:1010F0001816B4F46FE371E0CE01DF91CF911F9128
:10110000FF90EF90DF90CF90BF90AF909F908F9027
:101110007F906F905F904F903F902F900C9491072D
:101120002FEF3FEF4FE75FECC701B6010E94471179
:1011300087FDE0CF20E030E0A901C701B6010E94A1
:101140004711312C212C87FF09C06DE2CE010E948E
:10115000E7021C01F7FAF094F7F8F09410E060E071
:1011600070E080E09FE3711641F020E030E040E263
:1011700051E40E944C111F5FF6CFA70196010E9417
:10118000DB102B013C010E94BE114B015C012AE0E7
:10119000BC01A401CE010E94A6077C01E20CF31C55
:1011A0001123C1F1C501B4010E94ED119B01AC01F5
:1011B000C301B2010E94DA104B015C016EE2CE0164
:1011C0000E94E702E80EF91E115020F120E030E005
:1011D00040E251E4C501B4010E94A4122B013C017C
:1011E0000E94BE114B01B12CA12C2AE0B501A40133
:1011F000CE010E94A607E80EF91EC501B4010E94A7
:10120000ED119B01AC01C301B2010E94DA104B0148
:101210005C01DACFC701DF91CF911F91FF90EF9072
:10122000DF90CF90BF90AF909F908F907F906F9006
:101230005F904F903F902F9008950C9491074F929C
:101240005F926F927F928F929F92AF92BF92CF9256
:10125000DF92EF92FF920F931F93CF93DF9300D013
:1012600000D000D0CDB7DEB70E94A00783E491E0A4
:101270000E9428088FB7F894C0902905D0902A05BD
:10128000E0902B05F0902C058FBFC701B60120E838
:101290003EEE46E350E00E94A910CA01B90128E1E0
:1012A00030E040E050E00E94A9102B013C01C70152
:1012B000B60120E63AEE40E050E00E94A9108CE32F
:1012C000882E912CA12CB12CCA01B901A501940141
:1012D0000E94A91069837A838B839C8309811A8178
:1012E000C701B60128EE33E040E050E00E94A910AB
:1012F000CA01B901A50194010E94A9106B017C01EA
:101300007E836D836CE671E08DE295E00E941D099D
:101310008AE04816510430F46FE771E08DE295E001
:101320000E941D092AE0B301A2018DE295E00E940E
:10133000A6076BE073E08DE295E00E941D090A307C
:10134000110530F46FE771E08DE295E00E941D0910
:101350002AE049815A816B817C818DE295E00E946F
:10136000A6076BE073E08DE295E00E941D098D8178
:101370009E810A9730F46FE771E08DE295E00E945C
:101380001D092AE0B701A6018DE295E00E94A6079B
:101390000E94A00781E891E00E942808809116052C
:1013A000882309F4F3C06AEA71E08DE295E00E94B7
:1013B0001D0940911205509113056091140570911B
:1013C000150521E08DE295E00E9437088DEB91E054
:1013D0000E94280860EC71E08DE295E00E941D09F2
:1013E00040910E0550910F05609110057091110507
:1013F00021E08DE295E00E94370883ED91E00E94A4
:10140000280866E072E08DE295E00E941D09C09018
:10141000C404D090C5040D2C000CEE08FF082AE08F
:10142000B701A601F7FE0DC06DE28DE295E00E94C6
:10143000E70244275527BA014C195D096E097F0957
:101440002AE08DE295E00E94A6070E94A00769E1CC
:1014500072E08DE295E00E941D094091C004509118
:10146000C1046091C2047091C30422E08DE295E052
:101470000E9437088CE292E00E9428086FE272E036
:101480008DE295E00E941D0960910C0570910D059B
:101490008DE295E00E94F20783ED91E00E9428081A
:1014A00062E472E08DE295E00E941D0980910C05D6
:1014B00090910D05843291050CF06FC08BE894E09B
:1014C0000E94280865E572E08DE295E00E941D0902
:1014D00080910B05882309F469C083E694E00E949B
:1014E000280868E672E08DE295E00E941D0980916F
:1014F0000A05882309F45DC083E694E00E94280869
:101500006BE772E08DE295E00E941D098091030176
:10151000882309F451C08EE892E00E94280881E8EF
:1015200091E00E94280880910301882309F447C0B4
:1015300083E992E00E94280881EA92E00E9428084C
:1015400088EB92E00E94280880ED92E00E94280833
:1015500086EE92E00E94280883E491E026960FB67A
:10156000F894DEBF0FBECDBFDF91CF911F910F91D9
:10157000FF90EF90DF90CF90BF90AF909F908F90B3
:101580007F906F905F904F900C94280886ED91E0CB
:101590000E9428088EEE91E032CF873491051CF42A
:1015A00087E994E08DCF85EA94E08ACF8DE494E0DA
:1015B00096CF8DE494E0A2CF87E094E0AECF8DEF9C
:1015C00092E00E9428088DE093E00E94280886E2BD
:1015D00093E0C0CF1F920F920FB60F9211242F935A
:1015E0003F938F939F93AF93BF93809129059091E1
:1015F0002A05A0912B05B0912C053091240523E0FC
:10160000230F2D3758F50196A11DB11D20932405F8
:101610008093290590932A05A0932B05B0932C0560
:101620008091250590912605A0912705B091280568
:101630000196A11DB11D8093250590932605A093C9
:101640002705B0932805BF91AF919F918F913F914E
:101650002F910F900FBE0F901F90189526E8230F23
:101660000296A11DB11DD2CF1F920F920FB60F92FD
:1016700011242F933F934F935F936F937F938F9397
:101680009F93AF93BF93EF93FF938DE295E00E94FA
:101690006C03FF91EF91BF91AF919F918F917F91DB
:1016A0006F915F914F913F912F910F900FBE0F90CF
:1016B0001F9018951F920F920FB60F9211242F931F
:1016C0008F939F93EF93FF93E0913D05F0913E053B
:1016D0008081E0914305F091440582FD1BC090811B
:1016E000809146058F5F8F7320914705821741F0E7
:1016F000E0914605F0E0E35DFA4F958F8093460553
:10170000FF91EF919F918F912F910F900FBE0F90AE
:101710001F9018958081F4CF1F920F920FB60F92F1
:1017200011242F933F934F935F936F937F938F93E6
:101730009F93AF93BF93EF93FF93E0910805F091D0
:101740000905309749F0A685B7858585968D91FF67
:1017500014C09C918923A1F4FF91EF91BF91AF91A7
:101760009F918F917F916F915F914F913F912F91B9
:101770000F900FBE0F901F9018959C91892361F7D1
:10178000A389B4899C918589809589238C938689C6
:1017900097890197F1F7608D718DA685B78555857D
:1017A00038E020E0CB010197F1F7822F90E095958A
:1017B0008795282F4C91452309F02068315091F7E7
:1017C000868D81FD20958091070590E001968F73AD
:1017D000992730910605381799F0A0910705B0E0D8
:1017E000AA53BB4F2C9380930705828D938D01974D
:1017F000F1F7A389B4898C919589892B8C93ACCF0F
:10180000868D8160868FF1CF1092300510922F0562
:1018100088EE93E0A0E0B0E080933105909332052C
:10182000A0933305B093340528E031E030932E05C2
:1018300020932D0525EC30E030933A0520933905AF
:1018400024EC30E030933C0520933B0520EC30E065
:1018500030933E0520933D0521EC30E03093400568
:1018600020933F0522EC30E0309342052093410560
:1018700026EC30E030934405209343051092460552
:101880001092470510924805109249052EE02093CA
:1018900006062BE020930706ECEBF0E0E491E093E2
:1018A0000806E8EAF0E0E491E093090640E85EE328
:1018B00060E070E040930E0650930F0660931006B0
:1018C000709311061092E5051092E4058093E605E9
:1018D0009093E705A093E805B093E90586E291E0CF
:1018E0009093E3058093E2051092F9051092F805B4
:1018F0001092FB051092FA051092FD051092FC055E
:101900001092FF051092FE05609100066E7F6D7FBC
:10191000609300066695617081E0682783E00E940D
:10192000170161E083E00E944501E1EBF0E0E49102
:10193000E093F205EDE9F0E0E491F0E0EE0FFF1F37
:10194000E057FF4F859194919093F4058093F305B0
:1019500060E082E00E9445018091000681FD04C0A4
:1019600061E082E00E94170182E08093EE05E0EBE7
:10197000F0E0E491E093EF05ECE9F0E0E491F0E0D1
:10198000EE0FFF1FEA57FF4F859194919093F10559
:101990008093F0051092CD051092CC058AE191E07C
:1019A0009093CB058093CA058DE08093CE058FEF91
:1019B0008093CF058CE08093D0058BE08093D10598
:1019C0008AE08093D20589E08093D30588E08093F4
:1019D000D4051092D5051092D6051092D705109215
:1019E000D8051092D90581E00C94DC06789484B572
:1019F000826084BD84B5816084BD85B5826085BD0B
:101A000085B5816085BD80916E00816080936E0098
:101A1000109281008091810082608093810080918A
:101A2000810081608093810080918000816080933B
:101A300080008091B10084608093B1008091B000FB
:101A400081608093B00080917A00846080937A00F6
:101A500080917A00826080937A0080917A00816020
:101A600080937A0080917A00806880937A00109247
:101A7000C100E0913D05F0913E0582E08083E09158
:101A80003905F0913A051082E0913B05F0913C0553
:101A90008FEC808310924505E0914105F09142055D
:101AA00086E08083E0913F05F09140058081806170
:101AB0008083E0913F05F0914005808188608083BC
:101AC000E0913F05F0914005808180688083E0913E
:101AD0003F05F091400580818F7D80831092FD0548
:101AE0001092FC051092FB051092FA051092F90570
:101AF0001092F8058DE991E09093FF058093FE0523
:101B00009091EE05963108F047C02DEB30E0309310
:101B1000F9052093F8052BE931E03093FB0520937C
:101B2000FA052CE231E03093FD052093FC0520916D
:101B3000680084E0983048F031E09E3008F430E0EE
:101B400081E001C0880F3A95EAF7822B8093680004
:101B50002DE630E0983050F02BE630E09E3030F04B
:101B60002CE630E0963110F030E020E03093F605BE
:101B70002093F505292F30E0983008F012C281E05B
:101B800001C0880F9A95EAF78093F7058091FE05CA
:101B90009091FF050197F1F78091FC059091FD056B
:101BA000892B49F1E0910805F091090525E0E23E15
:101BB000F20709F1309739F0A389B4899C9185899E
:101BC000809589238C93809100068E7F80930006F8
:101BD000109207051092060582EE95E09093090594
:101BE00080930805E091F505F091F60580819091CC
:101BF000F705892B808362E0809106060E944501EB
:101C00002FB7F8948091290590912A05A0912B0572
:101C1000B0912C052FBF805D9740A109B109809339
:101C20000A0690930B06A0930C06B0930D0687E36B
:101C30008093130660E081E10E94450160E08FE03F
:101C40000E94450162E080E10E94450162E082E17C
:101C50000E94450161E087E00E94450161E086E065
:101C60000E94450161E085E00E94450161E084E059
:101C70000E9445010E94C2040E94AB0482E00E94BF
:101C8000DC060E94D40680E00E947D076EE373E0CC
:101C90008AEC95E00E941D0981E00E947D076DE4B9
:101CA00073E08AEC95E00E941D090E94A00783E47E
:101CB00091E00E94280889E593E00E94280883E4C7
:101CC00091E00E9428088BE793E00E94280889E9A8
:101CD00093E00E94280886EB93E00E94280883E4A2
:101CE00091E00E9428086CED75E080E090E00E9491
:101CF000A6010E94D4060E94FC040E94D9040E94FE
:101D00001F0901E0C0E0D0E08FB7F894C09029052A
:101D1000D0902A05E0902B05F0902C058FBF8FE026
:101D20000E94EE00BB24B394009709F4B12C892BD8
:101D300011F5809100018823F1F01091030168E210
:101D400070E080E090E00E94A6018FE00E94EE002B
:101D5000892B89F4812F802780930301882309F43C
:101D60002DC10E94A00785ED93E00E9428080E94E3
:101D7000FC040E94D904B0920001809103018111FA
:101D80004AC080E10E94EE0011E0009709F410E0E3
:101D9000892BD1F4809101018823B1F068E270E0D1
:101DA00080E090E00E94A60180E10E94EE00892B75
:101DB00059F480910B05882309F40BC10E94C204D9
:101DC0008EE094E00E9428081093010182E10E94B5
:101DD000EE0011E0009709F410E0892BD1F4809116
:101DE00002018823B1F068E270E080E090E00E9498
:101DF000A60182E10E94EE00892B59F480910A0528
:101E0000882309F4EBC00E94AB048BE394E00E94AA
:101E10002808109302018091200590912105A0913E
:101E20002205B0912305A7019601281B390B4A0B07
:101E30005B0BDA01C901883E9340A105B10578F03A
:101E4000C0922005D0922105E0922205F092230550
:101E50000E94FC048091030181110E94D9048091A9
:101E60001C0590911D05A0911E05B0911F05A701AD
:101E70009601281B390B4A0B5B0BDA01C901803D27
:101E80009740A105B10508F45CC0C0921C05D09232
:101E90001D05E0921E05F0921F050E94D406809158
:101EA00017058111A0C00E947D078091160569E683
:101EB00074E08823D1F066E674E08AEC95E00E9435
:101EC0001D09409112055091130560911405709100
:101ED000150521E08AEC95E00E9437086FED8AEC49
:101EE00095E00E94E7026EEB71E08AEC95E00E94BB
:101EF0001D0981E00E947D07809116058823C9F0A5
:101F000063E774E08AEC95E00E941D0940910E059C
:101F100050910F05609110057091110520E08AEC39
:101F200095E00E94370864ED71E08AEC95E00E942C
:101F30001D09809117058F5F843008F0C1C0809320
:101F400017058091180590911905A0911A05B09177
:101F50001B05A7019601281B390B4A0B5B0BDA0105
:101F6000C90180319742A105B10550F0C092180512
:101F7000D0921905E0921A05F0921B050E941F09E4
:101F800082EE95E00E947004892B09F49CC082EED9
:101F900095E00E948604682F8DE295E00E948E03F2
:101FA000EFCF9E3040F42850310981E001C0880F06
:101FB0002A95EAF7E9CD2E503109F7CF0E94A00704
:101FC00083EF93E00E9428080E94C2040E94AB04A1
:101FD000D2CE0E94CD0485E294E0F4CE0E94B604F5
:101FE00081E594E014CF813069F580E00E947D079F
:101FF0006DE774E08AEC95E00E941D0960910C0584
:1020000070910D058AEC95E00E94F20764ED71E095
:102010008AEC95E00E941D0981E00E947D07809175
:102020000C0590910D0563E874E0843291050CF481
:102030007CCF6FE874E0873491050CF476CF6DE9BE
:1020400074E073CF823039F580E00E947D0769EA41
:1020500074E08AEC95E00E941D0980910B0563E60F
:1020600074E0811102C06DE474E08AEC95E00E9496
:102070001D0981E00E947D076FEA74E08AEC95E01B
:102080000E941D0980910A0563E674E081114DCF1D
:102090006DE474E04ACF80E00E947D0764EB74E059
:1020A0008AEC95E00E941D0981E00E947D078091E5
:1020B000030169EE73E0811138CF67E074E035CF3A
:1020C000109217053ECF209709F41ECE0E945803A8
:1020D000882309F419CE0E94000016CE86E291E012
:1020E0009093E3058093E20580910805909109059E
:1020F000825E954071F4E091F505F091F6059081CE
:102100008091F705809589238083109209051092AC
:1021100008050895052E97FB1EF400940E94A11057
:1021200057FD07D00E94A91007FC03D04EF40C9471
:10213000A11050954095309521953F4F4F4F5F4FDF
:10214000089590958095709561957F4F8F4F9F4F23
:102150000895A1E21A2EAA1BBB1BFD010DC0AA1FE8
:10216000BB1FEE1FFF1FA217B307E407F50720F000
:10217000A21BB30BE40BF50B661F771F881F991F7B
:102180001A9469F760957095809590959B01AC01C4
:10219000BD01CF010895A29FB001B39FC001A39FCD
:1021A000700D811D1124911DB29F700D811D112490
:1021B000911D08955058BB27AA270E94F2100C9435
:1021C00065120E94571238F00E945E1220F039F416
:1021D0009F3F19F426F40C9454120EF4E095E7FB9B
:1021E0000C944E12E92F0E94761258F3BA17620728
:1021F00073078407950720F079F4A6F50C949812DC
:102200000EF4E0950B2EBA2FA02D0B01B901900111
:102210000C01CA01A0011124FF27591B99F0593F55
:1022200050F4503E68F11A16F040A22F232F342F9D
:102230004427585FF3CF469537952795A795F040EB
:102240005395C9F77EF41F16BA0B620B730B840B00
:10225000BAF09150A1F0FF0FBB1F661F771F881FB8
:10226000C2F70EC0BA0F621F731F841F48F4879510
:1022700077956795B795F7959E3F08F0B0CF939502
:10228000880F08F09927EE0F9795879508950E947B
:102290002A1208F481E008950E9460110C946512DE
:1022A0000E945E1258F00E94571240F029F45F3FDE
:1022B00029F00C944E1251110C9499120C94541252
:1022C0000E94761268F39923B1F3552391F3951B7D
:1022D000550BBB27AA2762177307840738F09F5F47
:1022E0005F4F220F331F441FAA1FA9F335D00E2EB4
:1022F0003AF0E0E832D091505040E695001CCAF721
:102300002BD0FE2F29D0660F771F881FBB1F2617E3
:1023100037074807AB07B0E809F0BB0B802DBF01BA
:10232000FF2793585F4F3AF09E3F510578F00C9489
:102330004E120C9499125F3FE4F3983ED4F38695C5
:1023400077956795B795F7959F5FC9F7880F911DAA
:102350009695879597F90895E1E0660F771F881F96
:10236000BB1F621773078407BA0720F0621B730B49
:10237000840BBA0BEE1F88F7E09508950E947E1239
:1023800088F09F5798F0B92F9927B751B0F0E1F036
:10239000660F771F881F991F1AF0BA95C9F714C0E6
:1023A000B13091F00E949812B1E008950C94981207
:1023B000672F782F8827B85F39F0B93FCCF386951F
:1023C00077956795B395D9F73EF49095809570957C
:1023D00061957F4F8F4F9F4F0895E89409C097FBF9
:1023E0003EF490958095709561957F4F8F4F9F4FEC
:1023F0009923A9F0F92F96E9BB279395F695879530
:1024000077956795B795F111F8CFFAF4BB0F11F4F2
:1024100060FF1BC06F5F7F4F8F4F9F4F16C0882399
:1024200011F096E911C0772321F09EE8872F762FCF
:1024300005C0662371F096E8862F70E060E02AF010
:102440009A95660F771F881FDAF7880F96958795FC
:1024500097F90895990F0008550FAA0BE0E8FEEFD1
:1024600016161706E807F907C0F012161306E40758
:10247000F50798F0621B730B840B950B39F40A2651
:1024800061F0232B242B252B21F408950A2609F42F
:10249000A140A6958FEF811D811D089597F99F6733
:1024A00080E870E060E008959FEF80EC08950024DC
:1024B0000A941616170618060906089500240A94A9
:1024C00012161306140605060895092E0394000C2F
:1024D00011F4882352F0BB0F40F4BF2B11F460FFBE
:1024E00004C06F5F7F4F8F4F9F4F089557FD9058E7
:1024F000440F551F59F05F3F71F04795880F97FBC8
:10250000991F61F09F3F79F0879508951216130681
:102510001406551FF2CF4695F1DF08C016161706B0
:102520001806991FF1CF86957105610508940895E5
:10253000E894BB2766277727CB0197F908950E9477
:102540002A1208F48FEF08950E94B7120C946512B6
:102550000E94571238F00E945E1220F0952311F06D
:102560000C944E120C94541211240C9499120E9443
:10257000761270F3959FC1F3950F50E0551F629F3F
:10258000F001729FBB27F00DB11D639FAA27F00DCC
:10259000B11DAA1F649F6627B00DA11D661F829FF3
:1025A0002227B00DA11D621F739FB00DA11D621FD8
:1025B000839FA00D611D221F749F3327A00D611DF5
:1025C000231F849F600D211D822F762F6A2F1124D7
:1025D0009F5750409AF0F1F088234AF0EE0FFF1F0A
:1025E000BB1F661F771F881F91505040A9F79E3F61
:1025F000510580F00C944E120C9499125F3FE4F355
:10260000983ED4F3869577956795B795F795E795B6
:102610009F5FC1F7FE2B880F911D9695879597F9BF
:1026200008950E942A12880B990B08950E94CB10DE
:10263000B7FF0895821B930B0895EE0FFF1F0590BF
:10264000F491E02D099410E0C2E6D0E004C0FE0150
:102650000E941D132196C336D107C9F7F894FFCF06
:1026600001010101000000008E03EE021B03DB03E9
:102670004C032A033E03000000008B07EE02A8046F
:10268000A704000000001404EE02A8041304700460
:102690008604FB030D0A006E616E00696E66006FB2
:1026A0007666003D3D3D3D3D3D3D3D3D3D3D3D3D35
:1026B0003D3D3D3D3D3D3D3D3D3D3D3D3D3D3D3D4A
:1026C0003D3D3D3D3D3D3D3D3D3D3D0054696D65DC
:1026D0002028474D54292020202020203A20003057
:1026E000002D2D2D2D2D2D2D2D2D2D2D2D2D2D2D47
:1026F0002D2D2D2D2D2D2D2D2D2D2D2D2D2D2D2D0A
:102700002D2D2D2D2D2D2D2D2D0054656D706572C7
:10271000617475726520202020203A20002043003B
:1027200048756D696469747920202020202020205C
:102730003A200020250054656D70657261747572D1
:102740006520202020203A204552524F52004875E3
:102750006D696469747920202020202020203A208F
:102760004552524F5200536F696C205241572020FE
:102770002020202020203A2000536F696C20566FC3
:102780006C74616765202020203A20002056005399
:102790006F696C204D6F6973747572652020203AE3
:1027A0002000536F696C205374617475732020206E
:1027B00020203A200057617465722050756D70209A
:1027C00020202020203A2000436F6F6C696E672024
:1027D00046616E20202020203A20004D6F64652045
:1027E00020202020202020202020203A2000415599
:1027F000544F004155544F20434F4E54524F4C3A82
:1028000000536F696C203C3D20333525202D3E2040
:1028100050554D50204F4E00536F696C203E202084
:10282000333525202D3E2050554D50204F46460033
:1028300054656D70203E3D33354320202D3E2046AB
:10284000414E204F4E0054656D70203C203335437F
:1028500020202D3E2046414E204F4646004D414E01
:1028600055414C20434F4E54524F4C3A0041322078
:10287000427574746F6E202D3E20546F67676C65CF
:102880002050756D7000413420427574746F6E2055
:102890002D3E20546F67676C652046616E00496F5E
:1028A000542049727269676174696F6E0053746174
:1028B0007274696E672E2E2E0020494F54204952A3
:1028C0005249474154494F4E204D4F4E49544F5263
:1028D000494E472053595354454D004155544F20BC
:1028E0002B204D414E55414C20434F4E54524F4C9E
:1028F00020454E41424C4544005465726D696E61FD
:102900006C20557064617465203A20313020536525
:10291000636F6E64730054696D6520466F726D61FC
:102920007420202020203A20474D542048483A4D1A
:102930004D3A5353003E3E3E204D4F4445204348C0
:10294000414E47454420544F204155544F4D41542A
:102950004943003E3E3E204D4F4445204348414EB2
:1029600047454420544F204D414E55414C003E3E7A
:102970003E204D414E55414C2050554D50202D3E4E
:10298000204F4646003E3E3E204D414E55414C2094
:1029900050554D50202D3E204F4E003E3E3E204D86
:1029A000414E55414C2046414E202D3E204F46463B
:1029B000003E3E3E204D414E55414C2046414E206A
:1029C0002D3E204F4E00543A004448542045525268
:1029D0004F520048756D69646974793A00536F69A4
:1029E0006C3A005374617475733A20445259005321
:1029F00074617475733A204D4F4953540053746198
:102A00007475733A205745540050756D703A0046FE
:102A1000616E3A0053797374656D204D6F64650083
:00000001FF
